:100000000EC020C01FC01EC01DC01CC01BC01AC017
:1000100019C018C017C016C015C014C013C01124D1
:100020001FBECFE5D2E0DEBFCDBF10E0A0E6B0E05E
:10003000EEE3F1E002C005900D92A637B107D9F7C3
:100040003BD07BC0DDCF62E070E080E090E061D02B
:1000500060E082E090E04BC0EF92FF920F931F931D
:10006000CF93DF937C01FC0101900020E9F73197E9
:10007000EF01C81BD90B80E090E025D08C010C0F5C
:100080001D1F0F3F21E0120770F4AE01BC01C70134
:100090001FD060E0C8012BD0B80180E090E039D0DB
:1000A00080E090E002C08FEF9FEFDF91CF911F9132
:1000B0000F91FF90EF900895C6DF80E690E0CCDFCF
:1000C00080E090E00895A8E1B0E042E050E027C071
:1000D000DC01A40FB51F4150504040F0CB01840F0C
:1000E000951F2E9105D041505040D8F70895262FE6
:1000F000E199FECF9FBB8EBBE09A01970DB202162D
:1001000039F01CBA2DBB0FB6F894E29AE19A0FBEF3
:1001100008950196272FECDFEACFDC01CB01FC012B
:10012000E199FECF06C0FFBBEEBBE09A31960DB25F
:0E0130000D9241505040B8F70895F894FFCF5B
:10013E004E69636520627261682C20796F75206448
:06014E00696420697400E1
:00000001FF
